{
    "contractName": "Counter",
    "abi": [
        {
            "inputs": [],
            "name": "Decrease",
            "outputs": [],
            "stateMutability": "nonpayable",
            "type": "function"
        },
        {
            "inputs": [],
            "name": "Increase",
            "outputs": [],
            "stateMutability": "nonpayable",
            "type": "function"
        },
        {
            "inputs": [],
            "name": "count",
            "outputs": [
                {
                    "internalType": "uint256",
                    "name": "",
                    "type": "uint256"
                }
            ],
            "stateMutability": "view",
            "type": "function"
        }
    ],
    "bytecode": "608060405234801561001057600080fd5b50610100806100206000396000f3fe6080604052348015600f57600080fd5b5060043610603c5760003560e01c806306661abd1460415780633530a14514605b578063fb6f9579146063575b600080fd5b604960005481565b60405190815260200160405180910390f35b60616069565b005b6061607d565b60008054908060768360a0565b9190505550565b60008054908060768360b4565b634e487b7160e01b600052601160045260246000fd5b60008160ac5760ac608a565b506000190190565b60006001820160c35760c3608a565b506001019056fea26469706673582212200b84b79a5f94ce7749b15d72584a4efe51d091d514b59e8fb5691cf017b52f3864736f6c63430008110033",
    "sourcePath": "c:/Users/USER/Documents/GitHub/CounterApp/Counter.sol",
    "compiler": {
        "name": "solc",
        "version": "0.8.17+commit.8df45f5f"
    },
    "functionHashes": {
        "Decrease()": "3530a145",
        "Increase()": "fb6f9579",
        "count()": "06661abd"
    },
    "gasEstimates": {
        "creation": {
            "codeDepositCost": "51200",
            "executionCost": "99",
            "totalCost": "51299"
        },
        "external": {
            "Decrease()": "24427",
            "Increase()": "24452",
            "count()": "2261"
        }
    }
}